:100000000C9462000C948A000C948A000C948A0070
:100010000C948A000C948A000C948A000C948A0038
:100020000C948A000C948A000C948A000C948A0028
:100030000C948A000C948A000C948A000C948A0018
:100040000C94BC050C948A000C948A050C946405ED
:100050000C948A000C948A000C948A000C948A00F8
:100060000C948A000C948A000000000024002700F1
:100070002A0000000000250028002B0000000000DE
:1000800023002600290004040404040404040202DA
:100090000202020203030303030301020408102007
:1000A0004080010204081020010204081020000012
:1000B0000008000201000003040700000000000027
:1000C0000000060611241FBECFEFD8E0DEBFCDBF73
:1000D00011E0A0E0B1E0EAE1F6E102C005900D9286
:1000E000A436B107D9F722E0A4E6B1E001C01D9221
:1000F000A232B207E1F710E0C2E6D0E004C02197D7
:10010000FE010E94050BC136D107C9F70E945006B7
:100110000C940B0B0C940000AF92BF92CF92DF9225
:10012000EF92FF920F931F93CF93DF936C017B01AC
:100130008B01040F151FEB015E01AE18BF08C0173D
:10014000D10759F06991D601ED91FC910190F081B0
:10015000E02DC6010995892B79F7C501DF91CF9173
:100160001F910F91FF90EF90DF90CF90BF90AF90D5
:100170000895FC01538D448D252F30E0842F90E0AD
:10018000821B930B541710F0CF9608950197089592
:10019000FC01918D828D981761F0A28DAE0FBF2F5B
:1001A000B11D5D968C91928D9F5F9F73928F90E0B1
:1001B00008958FEF9FEF0895FC01918D828D981720
:1001C00031F0828DE80FF11D858D90E008958FEF5D
:1001D0009FEF0895FC01918D228D892F90E0805C26
:1001E0009F4F821B91098F73992708958DE691E0A7
:1001F0000E94EA0021E0892B09F420E0822F089573
:1002000080E090E0892B29F00E94F60081110C9487
:1002100000000895FC01A48DA80FB92FB11DA35AA9
:10022000BF4F2C91848D90E001968F739927848F16
:10023000A689B7892C93A089B1898C918370806439
:100240008C93938D848D981306C00288F389E02DDA
:1002500080818F7D80830895EF92FF920F931F938B
:10026000CF93DF93EC0181E0888F9B8D8C8D981369
:100270001AC0E889F989808185FF15C09FB7F89475
:10028000EE89FF896083E889F989808183708064C1
:1002900080839FBF81E090E0DF91CF911F910F910C
:1002A000FF90EF900895F62E0B8D10E00F5F1F4F1B
:1002B0000F731127E02E8C8D8E110CC00FB607FC2A
:1002C000FACFE889F989808185FFF5CFCE010E94B8
:1002D0000A01F1CFEB8DEC0FFD2FF11DE35AFF4F1B
:1002E000F0829FB7F8940B8FEA89FB898081806246
:1002F000CFCFCF93DF93EC01888D8823B9F0AA8903
:10030000BB89E889F9898C9185FD03C0808186FDD0
:100310000DC00FB607FCF7CF8C9185FFF2CF80811F
:1003200085FFEDCFCE010E940A01E9CFDF91CF9189
:100330000895833081F028F4813099F08230A9F05B
:1003400008958730A9F08830C9F08430B1F48091E5
:1003500080008F7D03C0809180008F778093800024
:10036000089584B58F7784BD089584B58F7DFBCFC4
:100370008091B0008F778093B00008958091B00095
:100380008F7DF9CFCF93DF93282F30E0F901E2552D
:10039000FF4F8491F901E656FF4FD491F901EA57D6
:1003A000FF4FC491CC23A1F081110E949901EC2F41
:1003B000F0E0EE0FFF1FE458FF4FA591B491EC91D0
:1003C000ED2381E090E009F480E0DF91CF91089582
:1003D00080E090E0FACF1F93CF93DF93282F30E097
:1003E000F901E255FF4F8491F901E656FF4FD49190
:1003F000F901EA57FF4FC491CC23A9F0162F8111C0
:100400000E949901EC2FF0E0EE0FFF1FEE58FF4F16
:10041000A591B4918FB7F894EC91111108C0D095C3
:10042000DE23DC938FBFDF91CF911F910895DE2BE8
:10043000F8CFCF93DF9390E0FC01E656FF4F249175
:100440008A579F4FFC0184918823D1F090E0880F58
:10045000991FFC01E859FF4FA591B491FC01EE589A
:10046000FF4FC591D49161110EC09FB7F8948C9144
:10047000E22FE0958E238C932881E223E8839FBFAF
:10048000DF91CF9108958FB7F894EC91E22BEC9324
:100490008FBFF6CF3FB7F8948091690190916A01C0
:1004A000A0916B01B0916C0126B5A89B05C02F3FB0
:1004B00019F00196A11DB11D3FBFBA2FA92F982F8A
:1004C0008827BC01CD01620F711D811D911D42E085
:1004D000660F771F881F991F4A95D1F708958F924D
:1004E0009F92AF92BF92CF92DF92EF92FF920E94C3
:1004F0004A024B015C0184E6C82ED12CE12CF12C80
:100500000E944A02681979098A099B09683E73406A
:1005100081059105A8F321E0C21AD108E108F1088C
:1005200088EE880E83E0981EA11CB11CC114D10472
:10053000E104F10429F7FF90EF90DF90CF90BF9096
:10054000AF909F908F900895089590E080E0089577
:10055000FB0101900020E9F73197AF01461B570BD3
:10056000DC01ED91FC910280F381E02D09948F92E2
:100570009F92AF92BF92EF92FF920F931F93CF93F0
:10058000DF93CDB7DEB7A1970FB6F894DEBF0FBEED
:10059000CDBF7C01FA01CB0119A2223008F42AE078
:1005A0008E010F5D1F4F822E912CB12CA12CBF010B
:1005B000A50194010E94E30AF901CA016A300CF511
:1005C000605DD8016E938D01232B242B252B79F7A9
:1005D00090E080E0109721F0BD01C7010E94A802C1
:1005E000A1960FB6F894DEBF0FBECDBFDF91CF91BD
:1005F0001F910F91FF90EF90BF90AF909F908F90C1
:100600000895695CDECF2F923F924F925F926F9276
:100610007F928F929F92AF92BF92CF92DF92EF9292
:10062000FF921F93CF93DF93EC016A017B01722E3F
:10063000AB019601CB01B6010E94DE0A6EE171E0CA
:10064000811126C046015701E894B7F82FEF3FEF1C
:100650004FE75FE7C501B4010E94DE0A81110CC0BB
:100660002FEF3FEF4FE75FE7C501B4010E94140988
:1006700062E271E0181664F02FEF3FEF4FE75FE49E
:10068000C701B6010E946C0A1816B4F466E271E064
:10069000CE01DF91CF911F91FF90EF90DF90CF902F
:1006A000BF90AF909F908F907F906F905F904F9092
:1006B0003F902F900C94A8022FEF3FEF4FE75FEC95
:1006C000C701B6010E94140987FDE0CF20E030E0A9
:1006D000A901C701B6010E941409312C212C87FF02
:1006E0000DC0E881F9810190F081E02D6DE2CE012D
:1006F00009951C01F7FAF094F7F8F09410E060E027
:1007000070E080E09FE3711641F020E030E040E2CD
:1007100051E40E9419091F5FF6CFA70196010E94BC
:10072000A8082B013C010E948B094B015C012AE0C7
:10073000BC01A401CE010E94B7027C01E20CF31CB3
:100740001123E1F1C501B4010E94BA099B01AC017A
:10075000C301B2010E94A7084B015C01E881F98145
:100760000190F081E02D6EE2CE010995E80EF91EB0
:10077000115020F120E030E040E251E4C501B40125
:100780000E94710A2B013C010E948B094B01B12C84
:10079000A12C2AE0B501A401CE010E94B702E80E07
:1007A000F91EC501B4010E94BA099B01AC01C30145
:1007B000B2010E94A7084B015C01DACFC701DF91AB
:1007C000CF911F91FF90EF90DF90CF90BF90AF90AF
:1007D0009F908F907F906F905F904F903F902F9061
:1007E0000895AB01BC0122E08AE092E00C9403037F
:1007F000CF93DF93AB01BC0122E08DE691E00E9434
:100800000303EC016AE271E08DE691E00E94A80228
:100810008C0F9D1FDF91CF910895CF93DF93EC0153
:1008200060E08E810E94EB0161E08E810E94EB010D
:1008300060E08E810E94EB018BE891E00197F1F777
:10084000DF91CF910895CF92DF92EF92FF920F93B5
:100850001F93CF93DF936C017C0187E0E80EF11CBE
:10086000D0E0C0E0062F10E0B8010C2E02C0759554
:1008700067950A94E2F76170F70181917F010E9408
:10088000EB012196C430D10579F7C601DF91CF91F4
:100890001F910F91FF90EF90DF90CF900C940D047B
:1008A000CF92DF92EF92FF920F931F93CF93DF933C
:1008B000EC01F62E642F8C810E94EB018D818F3F1D
:1008C00019F060E00E94EB010F2D10E08F8584FF8E
:1008D00025C06E0187E0C80ED11CF12CE12CB801B7
:1008E0000E2C02C0759567950A94E2F76170F601C7
:1008F00081916F010E94EB01FFEFEF1AFF0A88E080
:10090000E816F10461F7CE01DF91CF911F910F91AD
:10091000FF90EF90DF90CF900C940D04B80184E02D
:10092000759567958A95E1F7CE010E9423046F2D96
:10093000CE01DF91CF911F910F91FF90EF90DF904B
:10094000CF900C94230440E0682F8AE092E00C944E
:100950005004CF93DF93823029F49091190298606C
:100960009093190280931D0210921E0280E48093DE
:100970001F0280E18093200280E58093210261E0E4
:1009800080910E020E94190280910F028F3F19F090
:1009900061E00E94190261E0809110020E94190238
:1009A000CAE0D2E09E012A5032408091190284FDB3
:1009B0000BC084E090E021962817390744F461E0E9
:1009C0008E810E941902EECF88E090E0F4CF8BE395
:1009D0009DE00197F1F760E080910E020E94EB012B
:1009E00060E0809110020E94EB0180910F028F3F26
:1009F00019F060E00E94EB018091190284FD39C07A
:100A000063E08AE092E00E942304CBE4D6E4CE01C6
:100A10000197F1F763E08AE092E00E9423042197B6
:100A2000F1F763E08AE092E00E94230483E592E01C
:100A30000197F1F762E08AE092E00E94230480913E
:100A4000190280620E94A30484E080931A028CE061
:100A50000E94A30481E00E94A3048BE39FE101971D
:100A6000F1F782E080931B0286E0DF91CF910C9436
:100A7000A30480620E94A3048BE496E40197F1F73B
:100A80008091190280620E94A30483E592E001979D
:100A9000F1F78091190280620E94A304D0CFE09107
:100AA0001D02E23048F4E150F0E0E65FFD4F94892A
:100AB000890F80680C94A304E1E0F6CF41E00E9426
:100AC000500481E090E008951F920F920FB60F92AC
:100AD00011242F933F934F935F936F937F938F9343
:100AE0009F93AF93BF93EF93FF938DE691E00E94A6
:100AF0000A01FF91EF91BF91AF919F918F917F91EB
:100B00006F915F914F913F912F910F900FBE0F907A
:100B10001F9018951F920F920FB60F9211242F93CA
:100B20008F939F93EF93FF93E0917D01F0917E016E
:100B30008081E0918301F091840182FD1BC090814E
:100B4000809186018F5F8F7320918701821741F01A
:100B5000E0918601F0E0E359FE4F958F8093860186
:100B6000FF91EF919F918F912F910F900FBE0F905A
:100B70001F9018958081F4CF1F920F920FB60F929D
:100B800011242F933F938F939F93AF93BF938091A3
:100B9000650190916601A0916701B0916801309163
:100BA000640123E0230F2D3758F50196A11DB11DD7
:100BB000209364018093650190936601A09367017F
:100BC000B09368018091690190916A01A0916B01D5
:100BD000B0916C010196A11DB11D809369019093A4
:100BE0006A01A0936B01B0936C01BF91AF919F918B
:100BF0008F913F912F910F900FBE0F901F901895DE
:100C000026E8230F0296A11DB11DD2CFEDE6F1E03B
:100C10001382128288EE93E0A0E0B0E08483958393
:100C2000A683B78384E091E09183808385EC90E094
:100C30009587848784EC90E09787868780EC90E0A6
:100C4000918B808B81EC90E0938B828B82EC90E097
:100C5000958B848B86EC90E0978B868B118E128E11
:100C6000138E148EEAE0F2E01382128286E191E0A4
:100C7000918380838CE084838FEF85838BE08683F0
:100C800085E0878384E0808783E0818782E08287B4
:100C90001386148615861686178681E00C94A9049F
:100CA000789484B5826084BD84B5816084BD85B547
:100CB000826085BD85B5816085BD80916E00816053
:100CC00080936E00109281008091810082608093F9
:100CD00081008091810081608093810080918000FB
:100CE0008160809380008091B10084608093B10026
:100CF0008091B00081608093B00080917A00846020
:100D000080937A0080917A00826080937A0080914B
:100D10007A00816080937A0080917A008068809365
:100D20007A001092C10060E08EE00E94190260E03B
:100D300086E00E94190260E087E00E94190261E0EB
:100D400088E00E94190261E089E00E94190261E0D6
:100D50008AE00E94190260E08DE00E941902E09191
:100D60007D01F0917E0182E08083E0917901F09134
:100D70007A011082E0917B01F0917C018FEC8083FD
:100D800010928501E0918101F091820186E08083DB
:100D9000E0917F01F0918001808180618083E0910A
:100DA0007F01F0918001808188608083E0917F01E4
:100DB000F0918001808180688083E0917F01F091D3
:100DC000800180818F7D808382E00E94A9046DE292
:100DD00071E08AE092E00E94A80280E00E944F0544
:100DE0006EE371E08AE092E00E94A80280E4782E2F
:100DF00090E0E92E90E0F92E70927C0080917A00CC
:100E0000806480937A0080917A0086FDFCCF809187
:100E1000780060917900762F682F072E000C880BE0
:100E2000990B0E94BC094B015C010E946F0286E095
:100E30000E94C2016C0187E00E94C2018C018DE01A
:100E40000E94C201EC01CA94CD2809F072C0C5010C
:100E5000B4010E94F80387E00E944F056CE471E042
:100E60008AE092E00E94A80289E00E944F056FE4A8
:100E700071E08AE092E00E94A80220E030E041E6C2
:100E800054E4C501B4010E946C0A87FD35C080E0BE
:100E90000E944F05C501B4010E94F10361E088E0A2
:100EA0000E94EB010E946F0260E088E00E94EB016B
:100EB0000E946F020130110509F0C7C0C501B401DD
:100EC0000E94F80380E00E944F05C501B4010E9412
:100ED000F10387E00E944F056CE471E08AE092E044
:100EE0000E94A80289E00E944F0566E571E08AE051
:100EF00092E00E94A80248C020E030E048EC53E4B1
:100F0000C501B4010E946C0A87FD72C080E00E9496
:100F10004F05C501B4010E94F10361E089E00E9420
:100F2000EB010E946F0260E089E00E94EB010E94E9
:100F30006F020130110509F088C0C501B4010E949B
:100F4000F80380E00E944F05C501B4010E94F1033F
:100F500087E00E944F056CE471E08AE092E00E9415
:100F6000A80289E00E944F0566E571E08AE092E000
:100F70000E94A80220E030E041E654E4C501B4013B
:100F80000E946C0A87FD44C080E00E944F05C501A5
:100F9000B4010E94F10361E088E00E94EB010E942D
:100FA0006F0260E088E00E94EB010E946F022197CF
:100FB00009F087C0C501B4010E94F80380E00E94D7
:100FC0004F05C501B4010E94F10387E00E944F055F
:100FD0006CE471E08AE092E00E94A80289E00E943D
:100FE0004F056DE571E08AE092E00E94A80256C0CC
:100FF00080E00E944F05C501B4010E94F10361E049
:101000008AE00E94EB010E946F0260E08AE08DCFCF
:1010100020E030E048EC53E4C501B4010E946C0AC2
:1010200087FD5BC080E00E944F05C501B4010E94AE
:10103000F10361E089E00E94EB010E946F0260E031
:1010400089E00E94EB010E946F022197D1F5C50152
:10105000B4010E94F80380E00E944F05C501B4016D
:101060000E94F10387E00E944F056CE471E08AE082
:1010700092E00E94A80289E00E944F056DE571E0B0
:101080008AE092E00E94A80220E030E041E654E4C9
:10109000C501B4010E946C0A87FD2FC080E00E9448
:1010A0004F05C501B4010E94F10361E088E00E9490
:1010B000EB010E946F0260E088E00E94EB010E9459
:1010C0006F02E114F10409F497CE0E94F600882320
:1010D00009F492CE0E9400008FCE80E00E944F055E
:1010E000C501B4010E94F10361E08AE00E94EB01B6
:1010F0000E946F0260E08AE0A4CF20E030E048EC7C
:1011000053E4C501B4010E946C0A87FD10C080E061
:101110000E944F05C501B4010E94F10361E089E01E
:101120000E94EB010E946F0260E089E0C6CF80E080
:101130000E944F05C501B4010E94F10361E08AE0FD
:101140000E94EB010E946F0260E08AE0B6CF505827
:10115000BB27AA270E94BF080C94320A0E94240AC7
:1011600038F00E942B0A20F039F49F3F19F426F43E
:101170000C94210A0EF4E095E7FB0C941B0AE92F6E
:101180000E94430A58F3BA1762077307840795074A
:1011900020F079F4A6F50C94650A0EF4E0950B2E78
:1011A000BA2FA02D0B01B90190010C01CA01A001B9
:1011B0001124FF27591B99F0593F50F4503E68F114
:1011C0001A16F040A22F232F342F4427585FF3CF55
:1011D000469537952795A795F0405395C9F77EF426
:1011E0001F16BA0B620B730B840BBAF09150A1F06F
:1011F000FF0FBB1F661F771F881FC2F70EC0BA0FF5
:10120000621F731F841F48F4879577956795B7957C
:10121000F7959E3F08F0B0CF9395880F08F0992777
:10122000EE0F9795879508950E94F70908F481E0DD
:1012300008950E942D090C94320A0E942B0A58F03E
:101240000E94240A40F029F45F3F29F00C941B0A05
:1012500051110C94660A0C94210A0E94430A68F307
:101260009923B1F3552391F3951B550BBB27AA275F
:1012700062177307840738F09F5F5F4F220F331F99
:10128000441FAA1FA9F335D00E2E3AF0E0E832D061
:1012900091505040E695001CCAF72BD0FE2F29D064
:1012A000660F771F881FBB1F261737074807AB0736
:1012B000B0E809F0BB0B802DBF01FF2793585F4FAB
:1012C0003AF09E3F510578F00C941B0A0C94660A84
:1012D0005F3FE4F3983ED4F3869577956795B7958D
:1012E000F7959F5FC9F7880F911D9695879597F998
:1012F0000895E1E0660F771F881FBB1F6217730711
:101300008407BA0720F0621B730B840BBA0BEE1F25
:1013100088F7E09508950E944B0A88F09F5798F04F
:10132000B92F9927B751B0F0E1F0660F771F881FEA
:10133000991F1AF0BA95C9F714C0B13091F00E9404
:10134000650AB1E008950C94650A672F782F882705
:10135000B85F39F0B93FCCF3869577956795B3952B
:10136000D9F73EF490958095709561957F4F8F4F9A
:101370009F4F0895E89409C097FB3EF4909580959F
:10138000709561957F4F8F4F9F4F9923A9F0F92F4B
:1013900096E9BB279395F695879577956795B795C9
:1013A000F111F8CFFAF4BB0F11F460FF1BC06F5FAF
:1013B0007F4F8F4F9F4F16C0882311F096E911C0C1
:1013C000772321F09EE8872F762F05C0662371F0E2
:1013D00096E8862F70E060E02AF09A95660F771FF6
:1013E000881FDAF7880F9695879597F90895990FD2
:1013F0000008550FAA0BE0E8FEEF16161706E807DF
:10140000F907C0F012161306E407F50798F0621BFF
:10141000730B840B950B39F40A2661F0232B242BD4
:10142000252B21F408950A2609F4A140A6958FEFF3
:10143000811D811D089597F99F6780E870E060E045
:1014400008959FEF80EC089500240A94161617065D
:1014500018060906089500240A94121613061406A5
:1014600005060895092E0394000C11F4882352F008
:10147000BB0F40F4BF2B11F460FF04C06F5F7F4FC0
:101480008F4F9F4F089557FD9058440F551F59F0A7
:101490005F3F71F04795880F97FB991F61F09F3F61
:1014A00079F087950895121613061406551FF2CF8A
:1014B0004695F1DF08C0161617061806991FF1CFDA
:1014C00086957105610508940895E894BB27662701
:1014D0007727CB0197F908950E94F70908F48FEF59
:1014E00008950E94840A0C94320A0E94240A38F05B
:1014F0000E942B0A20F0952311F00C941B0A0C94E7
:10150000210A11240C94660A0E94430A70F3959FE5
:10151000C1F3950F50E0551F629FF001729FBB27EA
:10152000F00DB11D639FAA27F00DB11DAA1F649F86
:101530006627B00DA11D661F829F2227B00DA11D39
:10154000621F739FB00DA11D621F839FA00D611DBF
:10155000221F749F3327A00D611D231F849F600DE0
:10156000211D822F762F6A2F11249F5750409AF009
:10157000F1F088234AF0EE0FFF1FBB1F661F771F95
:10158000881F91505040A9F79E3F510580F00C9460
:101590001B0A0C94660A5F3FE4F3983ED4F38695E9
:1015A00077956795B795F795E7959F5FC1F7FE2B00
:1015B000880F911D9695879597F908950E94F709D0
:1015C000880B990B0895A1E21A2EAA1BBB1BFD01E3
:1015D0000DC0AA1FBB1FEE1FFF1FA217B307E40712
:1015E000F50720F0A21BB30BE40BF50B661F771F6A
:1015F000881F991F1A9469F760957095809590954A
:101600009B01AC01BD01CF010895EE0FFF1F0590B6
:0A161000F491E02D0994F894FFCF47
:10161A00000000002C018C00B9007901EA00C80022
:10162A00DC00000000005E058C00A502A4026E61C9
:10163A006E00696E66006F7666000D0A00476F6F6E
:10164A006420467275697446696E646572005365F2
:10165A006C656374204672756974202020200054DA
:10166A006F6D61746F00477561766120004D616E20
:04167A00676F200076
:00000001FF
